{
  "contractName": "AcademicDiploma",
  "abi": [
    {
      "inputs": [],
      "stateMutability": "nonpayable",
      "type": "constructor"
    },
    {
      "anonymous": false,
      "inputs": [
        {
          "indexed": true,
          "internalType": "bytes32",
          "name": "diplomaId",
          "type": "bytes32"
        },
        {
          "indexed": false,
          "internalType": "string",
          "name": "studentName",
          "type": "string"
        },
        {
          "indexed": false,
          "internalType": "string",
          "name": "degree",
          "type": "string"
        },
        {
          "indexed": false,
          "internalType": "string",
          "name": "institutionName",
          "type": "string"
        },
        {
          "indexed": false,
          "internalType": "string",
          "name": "graduationDate",
          "type": "string"
        },
        {
          "indexed": false,
          "internalType": "string",
          "name": "qrCode",
          "type": "string"
        }
      ],
      "name": "DiplomaIssued",
      "type": "event"
    },
    {
      "inputs": [
        {
          "internalType": "string",
          "name": "studentName",
          "type": "string"
        },
        {
          "internalType": "string",
          "name": "degree",
          "type": "string"
        },
        {
          "internalType": "string",
          "name": "institutionName",
          "type": "string"
        },
        {
          "internalType": "string",
          "name": "graduationDate",
          "type": "string"
        },
        {
          "internalType": "string",
          "name": "qrCode",
          "type": "string"
        }
      ],
      "name": "issueDiploma",
      "outputs": [
        {
          "internalType": "bytes32",
          "name": "",
          "type": "bytes32"
        }
      ],
      "stateMutability": "nonpayable",
      "type": "function"
    },
    {
      "inputs": [
        {
          "internalType": "bytes32",
          "name": "diplomaId",
          "type": "bytes32"
        }
      ],
      "name": "verifyDiploma",
      "outputs": [
        {
          "internalType": "bool",
          "name": "",
          "type": "bool"
        }
      ],
      "stateMutability": "view",
      "type": "function",
      "constant": true
    },
    {
      "inputs": [
        {
          "internalType": "bytes32",
          "name": "diplomaId",
          "type": "bytes32"
        }
      ],
      "name": "getDiplomaDetails",
      "outputs": [
        {
          "internalType": "string",
          "name": "",
          "type": "string"
        },
        {
          "internalType": "string",
          "name": "",
          "type": "string"
        },
        {
          "internalType": "string",
          "name": "",
          "type": "string"
        },
        {
          "internalType": "string",
          "name": "",
          "type": "string"
        },
        {
          "internalType": "string",
          "name": "",
          "type": "string"
        }
      ],
      "stateMutability": "view",
      "type": "function",
      "constant": true
    }
  ],
  "bytecode": "0x608060405234801561001057600080fd5b5033600160006101000a81548173ffffffffffffffffffffffffffffffffffffffff021916908373ffffffffffffffffffffffffffffffffffffffff160217905550610de9806100616000396000f3fe608060405234801561001057600080fd5b50600436106100415760003560e01c806349c8eba214610046578063d880600414610076578063e89cc997146100aa575b600080fd5b610060600480360381019061005b9190610867565b6100da565b60405161006d9190610b2a565b60405180910390f35b610090600480360381019061008b919061083e565b610345565b6040516100a1959493929190610b45565b60405180910390f35b6100c460048036038101906100bf919061083e565b6106f2565b6040516100d19190610b0f565b60405180910390f35b6000600160009054906101000a900473ffffffffffffffffffffffffffffffffffffffff1673ffffffffffffffffffffffffffffffffffffffff163373ffffffffffffffffffffffffffffffffffffffff161461016c576040517f08c379a000000000000000000000000000000000000000000000000000000000815260040161016390610bbb565b60405180910390fd5b60008686868686604051602001610187959493929190610ac4565b60405160208183030381529060405280519060200120905060008082815260200190815260200160002060050160009054906101000a900460ff1615610202576040517f08c379a00000000000000000000000000000000000000000000000000000000081526004016101f990610bdb565b60405180910390fd5b6040518060c0016040528088815260200187815260200186815260200185815260200184815260200160011515815250600080838152602001908152602001600020600082015181600001908051906020019061026092919061071e565b50602082015181600101908051906020019061027d92919061071e565b50604082015181600201908051906020019061029a92919061071e565b5060608201518160030190805190602001906102b792919061071e565b5060808201518160040190805190602001906102d492919061071e565b5060a08201518160050160006101000a81548160ff021916908315150217905550905050807f35c2cff56913c9c47dc0c818b51d04dab6cd25055166c2e383c411eeb0425f6c8888888888604051610330959493929190610b45565b60405180910390a28091505095945050505050565b606080606080606060008087815260200190815260200160002060050160009054906101000a900460ff166103af576040517f08c379a00000000000000000000000000000000000000000000000000000000081526004016103a690610bfb565b60405180910390fd5b60008060008881526020019081526020016000206040518060c00160405290816000820180546103de90610cfb565b80601f016020809104026020016040519081016040528092919081815260200182805461040a90610cfb565b80156104575780601f1061042c57610100808354040283529160200191610457565b820191906000526020600020905b81548152906001019060200180831161043a57829003601f168201915b5050505050815260200160018201805461047090610cfb565b80601f016020809104026020016040519081016040528092919081815260200182805461049c90610cfb565b80156104e95780601f106104be576101008083540402835291602001916104e9565b820191906000526020600020905b8154815290600101906020018083116104cc57829003601f168201915b5050505050815260200160028201805461050290610cfb565b80601f016020809104026020016040519081016040528092919081815260200182805461052e90610cfb565b801561057b5780601f106105505761010080835404028352916020019161057b565b820191906000526020600020905b81548152906001019060200180831161055e57829003601f168201915b5050505050815260200160038201805461059490610cfb565b80601f01602080910402602001604051908101604052809291908181526020018280546105c090610cfb565b801561060d5780601f106105e25761010080835404028352916020019161060d565b820191906000526020600020905b8154815290600101906020018083116105f057829003601f168201915b5050505050815260200160048201805461062690610cfb565b80601f016020809104026020016040519081016040528092919081815260200182805461065290610cfb565b801561069f5780601f106106745761010080835404028352916020019161069f565b820191906000526020600020905b81548152906001019060200180831161068257829003601f168201915b505050505081526020016005820160009054906101000a900460ff161515151581525050905080600001518160200151826040015183606001518460800151955095509550955095505091939590929450565b600080600083815260200190815260200160002060050160009054906101000a900460ff169050919050565b82805461072a90610cfb565b90600052602060002090601f01602090048101928261074c5760008555610793565b82601f1061076557805160ff1916838001178555610793565b82800160010185558215610793579182015b82811115610792578251825591602001919060010190610777565b5b5090506107a091906107a4565b5090565b5b808211156107bd5760008160009055506001016107a5565b5090565b60006107d46107cf84610c4c565b610c1b565b9050828152602081018484840111156107ec57600080fd5b6107f7848285610cb9565b509392505050565b60008135905061080e81610d9c565b92915050565b600082601f83011261082557600080fd5b81356108358482602086016107c1565b91505092915050565b60006020828403121561085057600080fd5b600061085e848285016107ff565b91505092915050565b600080600080600060a0868803121561087f57600080fd5b600086013567ffffffffffffffff81111561089957600080fd5b6108a588828901610814565b955050602086013567ffffffffffffffff8111156108c257600080fd5b6108ce88828901610814565b945050604086013567ffffffffffffffff8111156108eb57600080fd5b6108f788828901610814565b935050606086013567ffffffffffffffff81111561091457600080fd5b61092088828901610814565b925050608086013567ffffffffffffffff81111561093d57600080fd5b61094988828901610814565b9150509295509295909350565b61095f81610ca3565b82525050565b61096e81610caf565b82525050565b600061097f82610c7c565b6109898185610c87565b9350610999818560208601610cc8565b6109a281610d8b565b840191505092915050565b60006109b882610c7c565b6109c28185610c98565b93506109d2818560208601610cc8565b80840191505092915050565b60006109eb602683610c87565b91507f4f6e6c7920746865206f776e65722063616e20706572666f726d20746869732060008301527f616374696f6e00000000000000000000000000000000000000000000000000006020830152604082019050919050565b6000610a51601683610c87565b91507f4469706c6f6d6120616c726561647920697373756564000000000000000000006000830152602082019050919050565b6000610a91601183610c87565b91507f4469706c6f6d61206e6f7420666f756e640000000000000000000000000000006000830152602082019050919050565b6000610ad082886109ad565b9150610adc82876109ad565b9150610ae882866109ad565b9150610af482856109ad565b9150610b0082846109ad565b91508190509695505050505050565b6000602082019050610b246000830184610956565b92915050565b6000602082019050610b3f6000830184610965565b92915050565b600060a0820190508181036000830152610b5f8188610974565b90508181036020830152610b738187610974565b90508181036040830152610b878186610974565b90508181036060830152610b9b8185610974565b90508181036080830152610baf8184610974565b90509695505050505050565b60006020820190508181036000830152610bd4816109de565b9050919050565b60006020820190508181036000830152610bf481610a44565b9050919050565b60006020820190508181036000830152610c1481610a84565b9050919050565b6000604051905081810181811067ffffffffffffffff82111715610c4257610c41610d5c565b5b8060405250919050565b600067ffffffffffffffff821115610c6757610c66610d5c565b5b601f19601f8301169050602081019050919050565b600081519050919050565b600082825260208201905092915050565b600081905092915050565b60008115159050919050565b6000819050919050565b82818337600083830152505050565b60005b83811015610ce6578082015181840152602081019050610ccb565b83811115610cf5576000848401525b50505050565b60006002820490506001821680610d1357607f821691505b60208210811415610d2757610d26610d2d565b5b50919050565b7f4e487b7100000000000000000000000000000000000000000000000000000000600052602260045260246000fd5b7f4e487b7100000000000000000000000000000000000000000000000000000000600052604160045260246000fd5b6000601f19601f8301169050919050565b610da581610caf565b8114610db057600080fd5b5056fea2646970667358221220347970ddb9b735fd81d41ff976984d91c016260328dfc5c8bfc251c04bbe6c5e64736f6c63430008000033",
  "immutableReferences": {},
  "source": "// SPDX-License-Identifier: MIT\r\npragma solidity ^0.8.0;\r\n\r\ncontract AcademicDiploma {\r\n    struct Diploma {\r\n        string studentName;\r\n        string degree;\r\n        string institutionName;\r\n        string graduationDate;\r\n        string qrCode;\r\n        bool isIssued;\r\n    }\r\n\r\n    mapping(bytes32 => Diploma) private diplomas;\r\n    address private owner;\r\n\r\n    event DiplomaIssued(bytes32 indexed diplomaId, string studentName, string degree, string institutionName, string graduationDate, string qrCode);\r\n\r\n    modifier onlyOwner() {\r\n        require(msg.sender == owner, \"Only the owner can perform this action\");\r\n        _;\r\n    }\r\n\r\n    constructor() {\r\n        owner = msg.sender;\r\n    }\r\n\r\n    function issueDiploma(string memory studentName, string memory degree, string memory institutionName, string memory graduationDate, string memory qrCode) public onlyOwner returns (bytes32) {\r\n        bytes32 diplomaId = keccak256(abi.encodePacked(studentName, degree, institutionName, graduationDate, qrCode));\r\n        require(!diplomas[diplomaId].isIssued, \"Diploma already issued\");\r\n\r\n        diplomas[diplomaId] = Diploma({\r\n            studentName: studentName,\r\n            degree: degree,\r\n            institutionName: institutionName,\r\n            graduationDate: graduationDate,\r\n            qrCode: qrCode,\r\n            isIssued: true\r\n        });\r\n\r\n        emit DiplomaIssued(diplomaId, studentName, degree, institutionName, graduationDate, qrCode);\r\n        return diplomaId;\r\n    }\r\n\r\n    function verifyDiploma(bytes32 diplomaId) public view returns (bool) {\r\n        return diplomas[diplomaId].isIssued;\r\n    }\r\n\r\n    function getDiplomaDetails(bytes32 diplomaId) public view returns (string memory, string memory, string memory, string memory, string memory) {\r\n        require(diplomas[diplomaId].isIssued, \"Diploma not found\");\r\n        Diploma memory diploma = diplomas[diplomaId];\r\n        return (diploma.studentName, diploma.degree, diploma.institutionName, diploma.graduationDate, diploma.qrCode);\r\n    }\r\n}\r\n",
  "sourcePath": "C:\\Users\\ABDUL WAHAB\\OneDrive\\Desktop\\Ankush\\contracts\\AcademicDiploma.sol",
  "compiler": {
    "name": "solc",
    "version": "0.8.0+commit.c7dfd78e.Emscripten.clang"
  },
  "schemaVersion": "3.4.16",
  "updatedAt": "2024-06-06T13:40:55.740Z",
  "networkType": "ethereum",
  "devdoc": {
    "kind": "dev",
    "methods": {},
    "version": 1
  },
  "userdoc": {
    "kind": "user",
    "methods": {},
    "version": 1
  }
}